:02000000F62BDD
:1004A800FF34FF34FF348312A0000B08A1008B1324
:1004B800200883169B001C141A088312A200210826
:1004C8008B00220808008312A600A7017A2A2708B1
:1004D8002607A50025088400270823075722831329
:1004E800800001308312A5002508A70724082702E9
:1004F800031C7F2A802A6B2A08008312A1000B089C
:10050800A2008B13210883169B00831220088316F0
:100518009A001C1555309D00AA309D009C141C1192
:100528009C18972A982A942A831222088B0008007C
:100538008312A600A701B02A27082607A5002508C8
:10054800840083130008A0002708230781220130B4
:100558008312A5002508A70724082702031CB52A2B
:10056800B62AA02A08008B0107308316810085016E
:100578003F30831285000730990009238312BE019A
:10058800DF2A85014130BC00EE30BB00BB0BCA2A14
:10059800BC0BCA2A0000203083128500C330BC007F
:1005A800CD30BB00BB0BD62ABC0BD62A0130831238
:1005B800BB003B08BE0707303E02031CE42AE52ABD
:1005C800C52A3E3083168500013083128500043029
:1005D800BD002C30BC00AB30BB00BB0BF12ABC0B00
:1005E800F12ABD0BF12AF82A831285010430BD00D7
:1005F8002C30BC00AB30BB00BB0B002BBC0B002B62
:10060800BD0B002B072BE82A00287D308312A3009E
:100618000330A4003F30672200308312B900003055
:10062800B8000030B7000030B6000330B500350818
:100638003E3E840083130008A800A901AA01AB016B
:100648003608AC003708AD003808AE003908AF00EE
:1006580008300310AC0DAD0DAE0DAF0DFF3E031D00
:100668002D2B2C08A8072D0803182D0F3C2B3D2BEC
:10067800A9072E0803182E0F422B432BAA072F0871
:1006880003182F0AAB072B08B9002A08B800290855
:10069800B7002808B6000130B5023508031D552BF0
:1006A800562B1B2B0030B3000030B2000030B100D5
:1006B8000030B0000330B400FF30A8000030A900BB
:1006C8000030AA000030AB003008AC003108AD00A3
:1006D8003208AE003308AF0008300310AC0DAD0D82
:1006E800AE0DAF0DFF3E031D712B2C08A8072D087A
:1006F80003182D0F802B812BA9072E0803182E0F06
:10070800862B872BAA072F0803182F0AAB072B085D
:10071800B3002A08B2002908B1002808B000013047
:10072800B4023408031D992B9A2B602B3308390621
:10073800031DA82B32083806031DA82B31083706DD
:10074800031DA82B30083606031DAB2BAC2BB42B8E
:100758000030B9000030B8000030B7000030B600F3
:100768000130B607003003180130B707003003180E
:100778000130B807003003180130B907BA013A0848
:100788003F3E84003608A8003708A9003808AA00A8
:100798003908AB003A08AC0002300310AC0DFF3E3C
:1007A800031DD12B03102C0D013EDF2B0310AB0CC6
:1007B800AA0CA90CA80CFF3E031DDA2B28088313EA
:1007C80080000130A8002808BA0703303A02031C49
:1007D800EE2BEF2BC32B7D30A3000330A4003F305A
:1007E8009C2208005422BF005522C0005622C10096
:0607F800C2018301B72AD3
:08400000FF3FFF3FFF3FFF3FC0
:02400E008431FB
:00000001FF
